:020000020000FC
:100000000FEF0DBF08E00EBF00E004B90FEF05B918
:100010000FEF07B90AB900E008B90BB940E030E0CA
:1000200010E003B11017E9F30E944B0003B1101761
:10003000C1F3102F199B0E943100189B0E943600BB
:100040001B9B0E943C001A9B0E9441001C9B0E942B
:100050004700542F550F550F550F550F530F5BB9D0
:10006000E0CF3395303109F430E00895303011F0AD
:100070003A9508953FE008954395403109F440E0F2
:100080000895403011F04A9508954FE00895642F87
:10009000630F68B908952FEF2A952030E9F72FEF05
:1000A0002A952030E9F72FEF2A952030E9F70895B7
:00000001FF
