:020000020000FC
:100000000FEF0DBF08E00EBF00E004B90FEF05B918
:100010000FEF07B90AB900E008B90BB940E030E0CA
:1000200010E003B11017E9F30E94440003B1101768
:10003000C1F3102F199B0E942E00189B0E943300C1
:100040001B9B0E9439001A9B0E943E00542F550FA3
:10005000550F550F550F530F5BB9E3CF3395303123
:1000600009F430E00895303011F03A9508953FE0FA
:1000700008954395403109F440E00895403011F06F
:100080004A9508954FE008952FEF2A952030E9F71B
:100090002FEF2A952030E9F72FEF2A952030E9F746
:0200A0000895C1
:00000001FF
